:020000040000FA
:10000000180F0020C9730000D1730000D9730000DD
:1000100000000000000000000000000000000000E0
:10002000000000000000000000000000E17300007C
:100030000000000000000000E9730000E30F000072
:10004000F9730000017400000974000011740000CD
:10005000197400002174000029740000317400003C
:1000600039740000417400004974000051740000AC
:1000700059740000617400000000000000000000DE
:1000800069740000717400007974000081740000CC
:10009000897400000000000000000000917400005E
:1000A00099740000A174000000000000A974000011
:1000B000B1740000B9740000C1740000C97400007C
:1000C00000F002F800F032F80CA030C8083824180C
:1000D0002D18A246671EAB4654465D46AC4201D180
:1000E00000F024F87E460F3E0FCCB6460126334280
:1000F00000D0FB1AA246AB46334318477C88000069
:100100009C8800000023002400250026103A01D31B
:1001100078C1FBD8520700D330C100D50B607047BF
:100120001FB5C046C0461FBD10B510BD07F0CCF8C6
:100130001146FFF7F5FF00F02DF807F0E4F803B4DF
:10014000FFF7F2FF03BC03F020FE0000C0B5024E33
:100150003768B847C0BD00000000001070B5054604
:100160000C46164602E00FCC0FC5103E102EFAD2F8
:10017000082E02D303CC03C5083E042E07D301CCBE
:1001800001C5361F03E021782970641C6D1C761EA2
:10019000F9D270BD00F0E6F800F05FF900F060FA07
:1001A000634800F01EFE03F017FF00F0C6F900F0F0
:1001B00010F904F04FF807245E4DE402214628466A
:1001C00004F074F800F04AFE00F0E3FB0128FBD0D5
:1001D00004F082FE03F012FD04F068FA0120564993
:1001E000400788605548016801229206114301606A
:1001F000132000F08DF9010051480FD00168012251
:100200005206114301604F2004F008F90A226421CC
:100210004C4805F0D3FB03F0F5FCFCE74A4A01210A
:100220001170016810221143016004F013F8214697
:10023000284604F03BF84549222003F093FF04F0E0
:10024000DCF9E3E710B5082000F062F97D23DB005C
:100250003F493B4A002820D0012008560924E443A6
:10026000A04201DD401E48704888984201D3012316
:100270000B700123CB560821C9438B420CDA0921AC
:1002800089012D4B0A2803D21068400500D5D9609A
:100290001068400500D4D96010BD012008560A2816
:1002A00001DA401C4870012008560928F4DD106866
:1002B000284C40050CD54888002805D00A78012A2A
:1002C000EAD1401E488010BD1068A043106010BDE8
:1002D0004888984205D20A78002AF8D1401C488004
:1002E00010BD10682043106010BD10B51A48028878
:1002F0004B21C9008A421AD30180184800240461A6
:1003000000F04FF80021212003F02CFF40230122B0
:100310006B21682000F0C2FA114841684908490081
:1003200041608004446304494015C860FEE710BD85
:10033000240500201B030000000400408802002068
:10034000980200206F12833B9C0200203A180000A4
:100350000000002000040000A002002000E000E0F7
:10036000001000400122FD4892071060FC484168DF
:1003700002231943416041688903FCD5F949416072
:1003800041684903FCD5F8490160002010607047BE
:10039000F749F64888600D20F54900028031C860B1
:1003A0007047F349F148C8600D20F14900028031DF
:1003B000886070470120E94980070160E8498A6840
:1003C00083141A438A6000210160EA492F204861A2
:1003D000704710B50120E14980070160E0498A6853
:1003E00083131A438A60002101600411E04884618C
:1003F000016B0F22120291430163016B032212026F
:1004000011430163C16B2143C1634104C161016BAD
:100410000F242403A1430163016B140121430163F1
:10042000D648D54901604260FF213F3101618169B1
:10043000194381618113016010BD30B50022CF4D99
:10044000CE4B203506E0845C2C70DC69E407FCD0E0
:10045000521CD2B28A42F6D330BD70B50122BF4DD4
:1004600092071560BE4988688B0518438860002391
:100470001360BF4844691026B4434461446A11269E
:100480003604344344623024C46315608C688603A8
:1004900034438C6013608414846105246403C46154
:1004A000846AB74E34408462846AB64E34438462B0
:1004B000B64CB54E2660666AB60AB602F61C66628F
:1004C000236115608C6885152C438C608C68C5147D
:1004D0002C438C601360A6490F228031CA614A6A9E
:1004E000120C12044A624A6AA94B1A434A629F4A92
:1004F000C2619F4B40335A6082600D221202CA6172
:100500009B4BC0335A60CA60A2498161C16370BD10
:1005100000210122824096480068104200D001214B
:1005200048B27047401E00B2002805DD00209A49FD
:10053000401C80B28842FBD9704700B50121874832
:10054000890708608648826810231A438260002069
:100550000860874884214163816185498F488031E3
:10056000486388618E49052008601E20FFF7DAFF86
:100570008B4A8C48403A90601E20FFF7D3FFD0682A
:10058000FF2101310843D0605068012108435060C9
:100590000F2050617820FFF7C5FF00BD804940392A
:1005A000CA68C00652095201C00E0243CA604868B8
:1005B0000222104348604869C007FCD0086880B236
:1005C0000F224A617047F0B575494039C868764EC8
:1005D000420930785201C306DB0E1A43CA604B68E9
:1005E000022213434B600F224A614A69D207FCD0B2
:1005F0005F4F6E4A84235E4CE02580370D2811D072
:100600001646203E022814D000281AD0664E05282F
:100610001FD00C2805D1086850800D203070E36190
:10062000FD61F0BD0868908002203070E361FD61DB
:10063000F0BD0868B0835C4800210170E361FD6192
:10064000F0BD0868F083584805210170E361FD6141
:10065000F0BD086810800C203070E361FD61F0BDD2
:1006600010B55449524B8B610224CC605248086348
:1006700048638863C863514A9361D46010635063D0
:100680009063D0634E480861106110BD4949002055
:10069000086388634949086388637047494800686C
:1006A000444A80034549002805DA642010639063BA
:1006B0000863886370473D48A038836B1363C36B3E
:1006C0009363026C0A63406C88637047F0B596468A
:1006D0009C463D4A146802231C4314603B4B400473
:1006E000C018106000275760781ED06097601468AB
:1006F00001231B049C43146054681C435460002471
:100700005E00334B07E0641CA4B29C4203D95168DD
:1007100031435160F0BDD568ED07F4D0D5680124B0
:100720002543D5601174002107E0491C89B2994224
:1007300003D9516831435160F0BDD5686D07F4D5D8
:10074000D16804252943D1601568012109040D43AE
:10075000156055680D435560002143E09669AA5520
:1007600040000040023A000000015504000204006D
:100770000004004000400040060006000060004009
:10078000FFFF000F00003310020000C70080004090
:10079000331100000001080080BB0000E0200000D1
:1007A0004010004004581F030400002004060020ED
:1007B0000399000000200040E7030000002C0040E7
:1007C000C188000098020020009000408D070000C2
:1007D000B80B0000491C89B2994203D951683143D2
:1007E0005160F0BDD568ED07F4D0FC49CA682243DA
:1007F000CA604F600022002177467F1EF74D1AE045
:100800006C6801239B041C436C60F54C07E0521C90
:1008100092B2A24203D96A6832436A60F0BDEB68C3
:100820001B07F4D5EC6808231C43EC602C7D634661
:100830005C54491C89B2B942E2DB02272C466F6046
:1008400062687B041A4362600022E54B07E0521C99
:1008500092B29A4203D9616831436160F0BDE568A4
:100860002D07F4D5E26808252A43E260227D65461B
:100870006A54616831436160002107E0491C89B214
:10088000994203D9616831436160F0BDE268920723
:10089000F4D5E0683843E0600020F0BDF0B5944640
:1008A000CE4D2C68022214432C60CE4A400480189E
:1008B000286000226A60501EE860AA602C6801224D
:1008C000120494432C606C6814436C600024520042
:1008D000C34E07E0641CA4B2B44203D96968114353
:1008E0006960F0BDEF68FF07F4D0EC6801273C4376
:1008F000EC602974002107E0491C89B2B14203D998
:10090000696811436960F0BDEC686407F4D5EC6870
:1009100004210C43EC60002413E02B74002107E059
:10092000491C89B2B14203D9696811436960F0BDBD
:10093000EF687F07F4D5E96804273943E960641C50
:10094000E4B26445E9D30021A74B07E0491C89B212
:10095000994203D9696811436960F0BD2C6A240586
:10096000240F0F2CF2D1696811436960002107E060
:10097000491C89B2B14203D9696811436960F0BD6D
:10098000EB689B07F4D5E86802210843E860002083
:10099000F0BD10B5954C01202070052003F0F6F94C
:1009A000802301226B216820FFF778FF401C42D092
:1009B000C82003F0EBF9032301226B216820FFF725
:1009C0006DFF401C39D00023012219216820FFF758
:1009D00065FF401C33D0032301221A216820FFF752
:1009E0005DFF401C2DD0182301221B216820FFF73A
:1009F00055FF401C27D0102301221C216820FFF73F
:100A00004DFF401C21D0052301221D216820FFF746
:100A100045FF401C1BD00023012237216820FFF72F
:100A20003DFF401C15D0FF20F53003F0AFF9022048
:100A30002070002010BD012010BD012010BD01203C
:100A400010BD012010BD012010BD012010BD0120EE
:100A500010BD012010BD10B5002818D00446644B0D
:100A600006223B216820FFF731FE00280FD16048A5
:100A7000017842780902891861808178C278090278
:100A80008918A1800179407909020818208010BDD9
:100A900010B500281AD00446554B06229B1D432151
:100AA0006820FFF713FE002810D15148801D0178FF
:100AB00042780902891861808178C2780902891810
:100AC000A1800179407909020818208010BD10B575
:100AD000484841698069081A302105F0B4F946494F
:100AE00009687D22D2005143401810BD70B50446FC
:100AF000424D2868C002002859DA3D4EB61F707872
:100B0000401CC0B27070102851D34F21204603F012
:100B10003CFC707842284AD3286801214906884362
:100B20002860002070703649087036480168C90690
:100B300003D435490968354A116001681022114310
:100B400001600168202291430160E0782179627997
:100B50004118A0791218891849060322490E120279
:100B600089182B4A11801F21C90241182948018088
:100B70000188108803F09AFB8021362003F0F2FAF6
:100B800008213D2003F0EEFA0021212003F0EAFACB
:100B9000224921480978405C03F040FC2868012183
:100BA00009058843286087201D498000086070BDC2
:100BB000F8B51C48007801283AD01B4800780C4C46
:100BC000104EA41F012835D00C4D2868C0024FD507
:100BD0001648FFF78BFF0020F8BD00000090004092
:100BE000B80B00008D070000701700009502002070
:100BF0000A00002000E000E08C02002098020020A3
:100C00009602002088020020C0020020C4020020BA
:100C1000EA020020EC020020C9020020CE020020DF
:100C2000A40200209C020020BE0200202B0600200F
:100C30000120D1E700207049704B0A1855781A1826
:100C400040321572401CC0B20A28F6D3A088401C5E
:100C500080B2A080FF21F531884204D330680121A1
:100C600089060843306066490E2008700120B3E70A
:100C7000644A10786449002808D00020A0701070E1
:100C80000870624C6078F0284FD0A8E03068C00649
:100C900039D53068400106D40878401C087000201F
:100CA00003F035FC32E0A078401CC0B2A0700127F0
:100CB0007F0601280FD12868B8432860544801886E
:100CC000232003F04FFA53480188292003F04AFA01
:100CD000022003F01CFCA07806280ED128683843B7
:100CE00028604D49232003F03DFA0721C90229203D
:100CF00003F038FA4F2003F091FBA0780A2805D3BF
:100D00000020A07002E04F2003F088FBA088401C68
:100D100080B2A080FF21F531884204D330680121E0
:100D2000890608433060002056E73C4800684001CF
:100D300055D53B49A07808700021212003F012FA14
:100D4000A079E278064611060E43237961791F04E3
:100D50000C022743334C3E432660304E3668F6067D
:100D600006D52468304E3668B44201D0002033E7FF
:100D7000D218081810184007400F810041180020B1
:100D80002A4B2B4A0C181C5D1454401CC0B2052879
:100D9000F8D32848002404702748047027480480AA
:100DA00003F070FC0021212003F0DCF9244923200A
:100DB00003F0D8F91849232003F0D4F901210903DD
:100DC0003C2003F0CFF903F059FC1E48048028684A
:100DD00001210905084328600C48FFF787FE012020
:100DE000FAE61949C1601949016319494163194972
:100DF00081631949C1637047200600206405002003
:100E0000BA02002096020020B80200202B06002023
:100E1000EA020020EC0200201B03000088020020F0
:100E200097020020C0020020C40200205C8600005F
:100E3000C9020020C8020020CE020020D0020020FB
:100E40001B430000AC0200205B040000B10B00005B
:100E5000570A0000910A0000CF0A000030B5E948A7
:100E600007210161E8494161E84908200860E74A33
:100E7000803A1060E6480368CC05234303601023E2
:100E80000B6013604368C0252B4343600123DB05DF
:100E90000B60136041692143416130BDF8B5DD4904
:100EA00008204860DC4D2868C002002819DBDB48B8
:100EB0000078012815D0DA4803F0DAFAD94900277A
:100EC00000280FD00F70D84E3068D54CC0060CD417
:100ED0006078F02805D1D549022008704F2003F032
:100EE0009DFAF8BD01200870EDE72868C002F8D42B
:100EF0006078F728F5D1E278A079120610432279BC
:100F0000637912041B021A431043C94A12689042C3
:100F1000E7D108780128E4D10921E01D02F0EFFFB4
:100F2000012850D10020C34B2118CA79191840312B
:100F30000A72062802D8C049225C0A54401CC0B27A
:100F40000828F1D9BD480078032803D18720BC497F
:100F500080000860BB48078030680121890688430B
:100F600030602868C91188432860B74AA078117892
:100F7000884203D0B54B1978491C1970107030683D
:100F8000400203D4AD48007803281CD103F07AFB5B
:100F90000021212003F0E6F8AD49232003F0E2F818
:100FA000AC480188232003F0DDF8012109033C202F
:100FB00003F0D8F803F062FB286801218906084392
:100FC0002860A548C780A048A1780170A449A3481B
:100FD0000978405C03F022FAF8BD8E491020486081
:100FE0007047F8B59F490868401C08609E48016832
:100FF000491C01609D490888401C0880864F38685C
:1010000000244001884D944E002846DAF088401CA8
:1010100080B2F080032801D006282AD18649092011
:1010200008702868552342020846C079002A02DA6F
:101030001843C87102E0AA221040C871C879AA22D8
:1010400082431AD0B470B2780F2A01D31840C87105
:101050008A78921C8A70087A401C08721018CA7923
:10106000801848727E497D480978415C724803F0D7
:101070008CF9F088072804D00FE0B278521CB270C7
:10108000E1E7F480386801218906884338607449B3
:1010900072480978405C03F0C1F902F0A9FFF168D9
:1010A000481CF0607248142929DDB1881E2901D23C
:1010B000491CB180B1881E290FD1FA21B1805D4948
:1010C000A0318A886B4B9A4202D90C21816004E0DE
:1010D0008988EB2901D90C21C16067490A78002A67
:1010E00002D00A78521C0A700A78FA2A01D9FA2228
:1010F0000A702968FF22013211432960F4603169C6
:101100004A1C32615D4A1268914205D32968012266
:10111000520211432960346129684A070421002AD8
:1011200008DA7269531C7361C82A03DD2A688A438E
:101130002A6074613289521C92B23281322A04D3FD
:101140003A6801231A433A6034813A4A8032936BF9
:101150005B1C9363936B7D27FF00BB4222DB946390
:10116000474B1A88521C1A802A6864235202002AAC
:101170000CDA3278521C32703278322A07D333704C
:101180002A680124E40522432A6000E034702A68BA
:10119000120207D57278521C52B27270052A01DB16
:1011A0007370C160F8BD10B53649087800220A286E
:1011B00000D90A70344804790878431C0B70334B0B
:1011C0001C541878CC2800D00A701878CC2818D174
:1011D000987A332815D11B480280134801680122F0
:1011E00092069143016011490A78002A09D10268E8
:1011F00010231A430260026820239A4302600120F0
:10120000087010BD00E000E080BB000080E100E05D
:1012100000E500E000070040980200209C0200204A
:101220002B0600209602002088020020BE0200202B
:10123000C4020020640500203F060020A802002010
:10124000A40200200800002097020020B90200201C
:101250001B430000EA02002018000020C902002001
:10126000CE0200208C020020D4020020AC0200201C
:101270008004004066080000BB02002090020020AD
:10128000A0020020940200202060004020060020E0
:1012900010B52021F94804F0D4FDF8482021203071
:1012A00004F0CFFDF5482021403004F0CAFDF3489A
:1012B0002021603004F0C5FDF0482021803004F08A
:1012C000C0FDEE482021A03004F0BBFDEB482021FA
:1012D000C03004F0B6FDE9482021E03004F0B1FD53
:1012E000E6490020C86010BDE5480068C00000283D
:1012F00011DB7F20E349C005C86500200866486609
:101300008866E1498865C8654865E049C861012289
:1013100084310A6048607047F0B58BB000200A90B5
:1013200009900890DA4D07952E466F0C06970597A1
:10133000D848012101700024D748416B01A8884793
:1013400069460620085EFF21F531884220DA6A46A8
:101350000821515EFF22F532914219DA5242904241
:1013600016DD914214DD6A460423D35ECB4A9C46C7
:101370009A18CB4B9A420BD30A9A80180A90099874
:10138000081809900899604640180890641C07E006
:10139000642002F0FBFC002400200A9009900890D1
:1013A000C048007801280BD069460420085EC72198
:1013B000C943884204DA00200A900990089000246A
:1013C0007D20C0008442B7DB01460A9804F045FD49
:1013D000AD4C20817D21C900099804F03EFD60815B
:1013E0007D21C900089804F038FDE08000200A90B3
:1013F000099008900024A848816B03A88847694693
:101400000E20085E0799884200DB0790B84200DC96
:1014100007466A461021515EA94200DB0D46069A36
:10142000914200DC06916B460C229A5EB24200DBD0
:101430001646059B9A4200DC05920A9BC0180A904A
:10144000099808180990089810180890641C0798C3
:10145000C11BFF20F530814207DA0699691A8142E3
:1014600003DA0599711A81420ADB002400200A90F0
:1014700009900890864D07952E466F0C06970597A4
:101480007D21C9008C42B6DB0D4629460A9804F03E
:10149000E4FC7D4C60802946099804F0DEFCA080C5
:1014A0002946089804F0D9FC20807F480168402232
:1014B00011430160774903220A7001680122D206B4
:1014C000114301606F4900204884FFF70DFF774802
:1014D000AA22C1791143C17172480078012801D054
:1014E00003F011F90BB0F0BD10B5FFF715FFFFF7D2
:1014F000FBFEFFF7CDFE10BDF7B584B0064663488E
:10150000416D104607F042F8694906F0AFFF69499E
:1015100005F0FAFB05F0CCFB5C4A803251611061AA
:1015200006F03CFE04460D46304605F01AFA224607
:101530002B460291039005F061FA0F465349064687
:1015400080310869496906F079FE04460D46059820
:1015500005F007FA22462B460091019005F04EFA5D
:1015600032463B4604F0D7FE04F01EFD47490865AD
:1015700080310869496906F011FE009B019A05F067
:101580003DFA0D4641490446803108694969012206
:10159000D207514006F052FE029B039A05F02EFA44
:1015A00022462B4604F0B7FE04F0FEFC3749C8641F
:1015B00007B0F0BDF8B50546344E84367068334C3C
:1015C000E16906F0E3FF2062206A3B493B4F884215
:1015D00004DB3946206A06F0D9FF2062206A3849C8
:1015E000884204D33946206A06F0D0FE2062756036
:1015F00024488030C06A00274000000E214D00289A
:1016000015D06879401CC0B26871642809D21421D1
:1016100004F019FC05F0B8FC2A4906F0B7FEE060BA
:1016200001E0642068712F717068E06100E06F7103
:101630002879401CC0B22871234F232809D81148AB
:101640008030C06A4000000E00D1E7607068E06141
:1016500010E046280AD20721233804F0FEFB05F0EB
:101660008BFC394606F092FEE06003E01748E0602C
:10167000FA202871E06905F0F7FBF8BDA40300200B
:101680009802002030000020640500203001002076
:101690000080FFFF9502002024050020B80B000009
:1016A000711700009C020020880200203F060020E5
:1016B000DA0F494000003443000096430000B44371
:1016C000000096C3CDCCCC3F333393400000404163
:1016D000F0B585B0F9490868F94C0307A0790122F3
:1016E000002B02DA1043A07102E040084000A07114
:1016F000F44B1868400704D5A07902252843A0714F
:1017000003E0A079FD252840A0711868000704D5E2
:10171000A07904252843A07103E0A079FB25284087
:10172000A0710868C00504D5A07908252843A071D8
:1017300006E00868800503D5A079F7252840A07148
:101740000868C00504D5A07910252843A07106E0DB
:101750000868800503D5A079EF252840A0710868A6
:101760002025C005DF26002803DAA0792843A071D0
:1017700005E00868800502D5A0793040A0710868AE
:10178000C00504D5A079C0273843A07106E00868D9
:10179000800503D5A0798006800EA07108684701F6
:1017A000C748C07902D41043E07102E0400840000D
:1017B000E071C5480078032803D0E0792843E07140
:1017C00002E0E0793040E0710868400604D5E07935
:1017D00040252843E07103E0E079BF252840E0710F
:1017E0000868800304D5E07980210843E07103E0B4
:1017F000E0794006400EE071A12069460870B048CB
:101800008030056C4D70C56C80358D70456C8035B1
:10181000CD70806C8030087100254D718D71186815
:10182000400202D56846C2710FE0A848006B05F07F
:101830003FFAA74AA74B05F0E1F80022A64B05F0B6
:10184000DDF805F049F86946C8710B206946087251
:10185000A0794872E0798872207AC8720D730120ED
:101860006B461A7B0B5CD2186B461A73401CC0B2D5
:101870000C28F5D35220694648730E216846FEF7BE
:10188000DCFD05B0F0BDF0B58BB000287ED00020A7
:10189000924901AA0B1840331B7A1354401CC0B262
:1018A0000828F7D96F463D7978790A90B979FA799D
:1018B000281889183B7A4018C118787ABE7A091816
:1018C0008C19F97A09916118FF24611A7C4CC9B20C
:1018D000A1733F7B8F4203D07A490968490155D5EE
:1018E000784909687E4F490100D43D64763A152A4B
:1018F00002D280216A46D171763B152B02D280211B
:101900006A4611726F4909680025C903002904DA83
:1019100040387864403EBE6444E0403805F02CFB1B
:101920000121C94305F074FB216C089105F0ECF925
:1019300000906846C079079005F026FB009906F0F4
:1019400025FD4321090606F021FE05F08DFA786495
:101950003046403805F010FB0121C94305F058FB23
:10196000089905F0D1F900906846067A304605F0EE
:101970000BFB009906F00AFD4321090606F006FE5E
:1019800005F072FAB8640798763800E0B4E3554978
:10199000152805D28B2E03D2752E01D90D7001E0CA
:1019A000012008700A988038F864F86C642801DD1A
:1019B0006420F864F96C6320C043814200DAF86463
:1019C000F96C1D20C043484E814204DDF96C1E298C
:1019D00001DAFD6438E0F96C81421ADCF96C3120DF
:1019E000C043814205DDF86CC10F08184010F8644F
:1019F00028E0F86C4F21C943884223DDF86C05F0DC
:101A0000BBFAFF21890505F07FF905F02DFAF8648E
:101A100018E0F86C1E2815DBF86C322805DAF86C33
:101A2000C10F08184010F8640CE0F86C502809DA6F
:101A3000F86C05F0A1FAFF21890505F065F905F0BC
:101A400013FAF864B576F5761E480068400102D5B1
:101A50007D64BD64FD641C48007800280AD01A48E3
:101A60000178012906D00178022903D015490968B7
:101A7000490179D5134E3068400101D4134885627D
:101A80003068000203D50D480068400606D530686E
:101A9000400144D509480068400640D4607A401CA3
:101AA000C1B26172608B192802D80322A2721FE0B2
:101AB0002D281BD80222A2721AE0000098020020F2
:101AC0003000002088020020A80200203001002001
:101AD00089066E11D083613F000024406405002018
:101AE000B0000020E4020020A40400200122A27221
:101AF000A27A914209D36572002806D0202802D329
:101B0000801E608301E0401E6083608B4100FE48C0
:101B1000405A2084208C05F037FAB86221E0386CF6
:101B2000032180B204F08FF960834100F648405AE7
:101B30002084208C05F028FAB862F4480168490630
:101B400002D4006800070CD530680121890788435A
:101B50003060EF48006805F00FFAB862FF20F530FA
:101B60002084E5830DE0FFE70078032809D1BD62FA
:101B7000E5489838816A491C81624563A583B5763A
:101B8000F576099880098607B60F6670002E04D096
:101B9000012E05D0022E06D007E0DE48206404E0C6
:101BA000DD48206401E0DD482064B86C05F0E4F90C
:101BB0000121C9074840216C069106F057FC786363
:101BC000786C05F0D9F90121C9074840069906F05B
:101BD0004DFC3863002E04D0012E0AD0022E10D006
:101BE00016E0F86C05F0C8F9CD4906F03FFCF86244
:101BF0000EE0F86C05F0C0F9CA4906F037FCF8624F
:101C000006E0F86C05F0B8F9C74906F02FFCF86259
:101C1000BD4E983EB16930468038406B06F07EFC80
:101C200003D2B169304680384163B0690127BF49AA
:101C3000FF077840496B06F071FC03D2B069BB49DD
:101C400078404863B169B948006B06F067FC02D27E
:101C5000B169B6480163B548803080690121C90780
:101C6000B24E4840316B06F059FC06D23046803007
:101C700080690121C90748403063AD4800684002CF
:101C800023D46846C07A810706D5A9490A6801238A
:101C90001B071A430A600BE0A5490A68D20007D562
:101CA0000A6804231A430A600A689B069A430A607A
:101CB000400705D59E48016808221143016004E0F1
:101CC0009B48026808218A4302606846C77901215F
:101CD00038467638C90615280CD26846007A80380E
:101CE0000A2807DC0922D243904203DBF06A400055
:101CF000000E03D0854A1068884310608D48007834
:101D000003281DD06846C07AC00606D57F48016802
:101D1000012252071143016012E07C4802689200E0
:101D20000ED50268120103D502688A43026002E000
:101D300002680A4302600168012252079143016070
:101D40006846C07A80065FD56F4814384068774986
:101D50008031496D06F01AFC744980310866764975
:101D6000884205DD754906F011FC7049803108662E
:101D70006E4873498030006E884205D96F4906F07D
:101D800005FB6A498031086668486E498030006EFC
:101D9000884209D86C49884206DC803FE78468465F
:101DA000007A8038208528E0664949424218D321CC
:101DB00009048A4207D86846007A8038E084802087
:101DC000C01B208519E0604A524282188A4207D817
:101DD0006846017A8020401AE084803F27850CE025
:101DE0005A49884202DA5A49884206D38020C11BE8
:101DF000E1846946097A401A208544480168012235
:101E00001207114301600BE04048016801221207EC
:101E100091430160803FE7846846007A80382085DE
:101E20003A480168C90004D4374914394A688439EA
:101E30004A6536480068C00019D5334814384268EE
:101E4000716CB06CFFF758FB38488030006D01278B
:101E5000FF07216C7840059106F008FB706333485A
:101E60008030C06C0599784006F000FB306327484D
:101E70000068000173D525480068C0000FD4607861
:101E80003449002804D0012804D0022804D066E098
:101E9000316364E0316362E02F4830635FE0607873
:101EA000002804D001280BD0022812D019E01648CF
:101EB000143842683121C943B06CFFF71DFB10E0B4
:101EC0001148143842683121C943B06CFFF714FB44
:101ED00007E00D48143842686321C943B06CFFF72E
:101EE0000BFB12488030006D0127FF07216C784002
:101EF000049106F0BBFA70630C488030C06C049902
:101F0000784006F0B3FA29E0C801002098020020CA
:101F1000A40200208FC2F53D9A99193E7B142E3EF3
:101F20000000C0BF3333D3BF6666E6BFB0000020F9
:101F300088020020A8020020000096430000B4435D
:101F4000000096C3000034C2000034420000074382
:101F5000000007C30000E040000050413063FC482F
:101F60000068400714D56846407A4027381A05F0C3
:101F700003F80121C94305F04BF830636846807AC5
:101F8000381A04F0F9FF0121C94305F041F87063E4
:101F9000F04B1878C821032801D0E5720EE0EE4816
:101FA0000268FF208005824201DDE57202E0E07AEE
:101FB000401CE072E07AC82800D9E1726846C07A15
:101FC000000713D5E248026852060FD51B78FF2799
:101FD00001377A00032B31D0E37B5F2B06D9E57301
:101FE0000368134303600268BA430260E07B401C4D
:101FF000C0B2E073C82800D9E173607B401CC0B256
:102000006073002810D002206073D148016849062F
:102010000AD40168090707D401684022114301600E
:102020000168202211430160C94F386840061ED55F
:10203000306C0121C0B202F0C5FB1DE0E37A322B07
:10204000D4D3E37B502BD1D9E17203689B05CDD467
:10205000C24B1B681B02C9D403689B03C6D5E5733A
:1020600003683B430360036893430360BEE7306C3F
:102070000021C0B202F0A6FB6846C07AC00704D0B7
:1020800038680421084338602573207B401CC0B2A7
:102090002073052805D30B20207339680420814361
:1020A00039603868400727D5B16A0120C0058142F0
:1020B00022DB386800051FD42820205E1F22012162
:1020C000D2430904904219DA3B681B0716D4A3488F
:1020D00002684B101A43026002680A430260022140
:1020E00061569F4A5031516301689A031143016060
:1020F00038680821084338600BB0F0BD202815DD92
:102100003868000712D49548026801239B031A43DC
:10211000026002680A430260022020569049503053
:1021200048633868082108433860E5E72620205EC8
:10213000904215DA3A68120712D4884802680123DF
:102140005B031A43026002680A43026002202056C1
:1021500083495A3048633868082108433860CBE720
:102160002028C9DD38680007C6D47C4802680123EE
:102170001B031A43026002680A43026002202056D1
:1021800077495A3048633868082108433860B3E714
:10219000F8B56F480068002102077248002A03DA88
:1021A000428D521C428500E04185428D7D230127EE
:1021B000DB007F049A4203D2664A1278032A46D192
:1021C000634C23680122D203934323602368521097
:1021D0009343236023680825AB4323605F4B1D684E
:1021E0009600B5431D601D68BD431D601D68160146
:1021F000B5431D601D685601B5431D601D6856003E
:10220000B5431D601D6895431D601D6852109543C0
:102210001D601A68F510AA431A60226804239A43C5
:10222000226023680222934323604D4D4E4C803D33
:10223000EC674B4B9C604D4E6E671E602C65EC65E9
:102240004B4ADA604B4A5A619963D9631964434A2D
:102250001368DB0318D53E48046840239C430460A0
:102260003F4B4548803BD8638033586B441E5C63CA
:10227000002808DC106801242404A04310601068C2
:10228000384310605963F8BD344A12683B4D3C4CEA
:1022900092035CD52E4E326802231A433260304AD4
:1022A000803AD163334B1365D3657F23DB055367D6
:1022B0002B4E3360334BD367B360284B1B68DB0472
:1022C00003D4264B1B689B040DD52F4BD365294B9C
:1022D00013657F23DB05336041231B065367294BBE
:1022E000B3602A4BD3671D4B1B681B0403D41B4BE5
:1022F0001B685B040CD5244B13651E4BD3657F23F1
:10230000DB055367224B33601E4BD367164AB2601E
:10231000124A12681F4B120440D58183C178581AA3
:1023200004F02AFEB063E06D6840F063306A6840F4
:102330003064A16D18488142A5D908480168B943A5
:10234000016002680121C9040A430260F8BD81E00E
:1023500098020020A8020020B0020020880200207D
:1023600030010020300000200000A0419A99993FE0
:102370000000404100007041008054440000008093
:10238000640500200000F041000088410000204169
:102390000000204048FEFFFF0000DCC2FE4A126839
:1023A00052041AD58183C078FF30B93004F0ECFDB7
:1023B000B063E06D6840F063306A68403064A16DDE
:1023C000F6488142C2DDF4480168B9430160016802
:1023D0000122D20411430160B8E7EF4A1268920467
:1023E00019D58183A16D6940B163C178581A04F091
:1023F000C3FDF063306A68403064E16DE8488142B3
:10240000A4D9E5480168B943016001680122D204FA
:10241000114301609AE7E04A1268D20496D581839D
:10242000A16D6940B163C078FF30B93004F0ACFDF4
:10243000F063306A68403064E16DD848814285DDE0
:10244000D5480168B943016001680122D2041143F3
:1024500001607BE7D04E32681203BDD5D24AD14B22
:102460001746D367D14BFB6333685B041ED581836A
:1024700080329163E36D6B40D363136A6B401364E6
:10248000A56DCB4B9D42A7DAA46D0123DB059C42D1
:10249000A2DB33680124A403A34333602423C35E77
:1024A00096335363D163916311644FE73368C14F2F
:1024B0001B041DD58183BC4A80329163E36D6B4060
:1024C000D363136A6B401364A56DBD4284D2A46DBF
:1024D000B94B9C429ED333680124E403A343336089
:1024E0002423C35E96335363D163916311642DE754
:1024F00033689B041FD5AC4AB04B80329360818314
:10250000A36D6B409363D163136A6B401364E56DF5
:10251000BD429ED2E46DA84B9C429AD333680124FD
:102520006403A34333602423C35E96335363D163B0
:10253000916311640AE73368DB0421D59A4AA04B02
:10254000803293608183A36D6B409363D163136A80
:102550006B401364E56D964B9D42A6DAE46D012352
:10256000DB059C42A1DB336801242403A3433360D1
:102570002423C35E96335363D16391631164E5E60C
:10258000904D2C6802239C432C602B689B0205D441
:102590002B68002B02DB2B681B0602D58A4BD3630A
:1025A00001E08A4BD3638A4C54677F4B80331C60B5
:1025B000884C1465D4655C6B671E5F63002C96DCE9
:1025C000854C54671C60854CD4679C601465D46549
:1025D000834ADA607F4A5A612A680124E40322436D
:1025E0002A602A68920202D58C22028313E02A68AC
:1025F000120602D5822202830DE02A68002A02DA3E
:102600006E22028307E02A68520302D55A2202830F
:1026100001E0642202832868800603D528684022EE
:102620001043286030680122D2049043306059631F
:10263000286808218843286088E6FFB583B00C9E8F
:102640000E9D04460F463846059905F09FFF019000
:10265000284604F091FC054602903046019905F0A9
:1026600005FF294605F002FF5E4904F04DFBE168D5
:1026700005F08CFE0546A168019805F087FF0090E3
:102680002169009805F082FF064627600598606082
:102690000198A0604B480068534F000717D4534877
:1026A00000784149002805D0C86A4000000E0ED1CC
:1026B000E5600CE03C4A8032506CB84207DA906C1E
:1026C000B84204DAC86A4000000E00D1E560029DFD
:1026D0000D99009805F0CAFE424905F0C7FE29464B
:1026E00004F012FB0546256166610699019805F024
:1026F000BDFE0F99012911D0E168B94200DDE76004
:102700003B49E2688A4200D9E160E16805F03EFE9B
:10271000294605F03BFEA06107B0F0BD3549E268EF
:102720008A4200DDE1603449E2688A42EDD9E16025
:10273000EBE7F0B58FB00026049605962F48816B25
:102740002F4888472E480C380E21415E01911021F8
:10275000415E02910C21415E03910221415E019A8A
:10276000511A01910422825E0299891A0291825FB4
:102770000399881A0390234C019865422246294602
:1027800001F013FC019022462946029801F00DFC4D
:1027900002902246294637E0880200200000DC42F1
:1027A0000000DCC20000F041B000002000802244A4
:1027B0000000AA420000AAC20000808000000C4273
:1027C00000002042980200200080544400804F44C2
:1027D00000002040000070419A99993F0000A041FC
:1027E000000040410000FA450000A040E402002043
:1027F0000000A0C00000C8420000C8C2240500209C
:1028000070050020FF7F0000039801F0CEFB0390CD
:10281000FE480068FF4F0107FD4809D4FE490968DA
:10282000FE4A914204DA3F210906F965B86501E0E4
:10283000B865FE65B96D0E91019804F09DFBF849ED
:102840000D9005F013FEF74C0546206804F094FB4C
:102850000E9905F00BFE294605F098FD04F004FBE7
:1028600020600C90029804F087FBED490B9005F076
:10287000FDFD0546606804F07FFB0E9905F0F6FD4E
:10288000294605F083FD04F0EFFA60600A90039D8D
:10289000A5600C9804F070FBE34904F035FADD4CB8
:1028A000803CE0610A9804F067FBDF4904F02CFAF1
:1028B0002062284604F060FBDB4904F025FA099009
:1028C0006062F96D7F20C005089105F05FFE01464A
:1028D00007900D9805F0CAFDD24D07460C352868C3
:1028E00004F04AFB089905F0C1FD394605F04EFD9C
:1028F00004F0BAFA0746286007990B9805F0B6FD70
:102900000090686804F038FB089905F0AFFD009965
:1029100005F03CFD04F0A8FA686006900399A960F0
:102920000D46384604F028FBBF4904F0EDF960601D
:10293000069804F021FBBC4904F0E6F9A060099870
:10294000E060BA4CE781069820822946A5810C9860
:10295000E0810A982082A181B548416B04A888478C
:102960006A461220105E01901420105E0290102022
:10297000105E03900821615E0198401A01900A21BF
:10298000615E0298401A02900621615E0398401A27
:102990000390A84D01986F422A46394601F005FB85
:1029A00001902A463946029801F0FFFA02902A4621
:1029B0003946039801F0F9FA039001986A4600B28B
:1029C000508202990FB29782118AE2888A1A0121F5
:1029D0000903521815B26A461582E288964BAA1A64
:1029E0001A808A4A1268954C12073BD404F0C4FA44
:1029F000934905F03BFD06462C20205E04F0BCFA0E
:102A0000904905F033FD314605F0C0FC04F02CFA86
:102A1000A085384604F0B0FA894905F027FD06463E
:102A20002E20205E04F0A8FA864905F01FFD3146ED
:102A300005F0ACFC04F018FAE085284604F09CFA96
:102A40007F4905F013FD05463020205E04F094FA1E
:102A50007C4905F00BFD294605F098FC04F004FACA
:102A6000208602E0A685E68521862C202E21205E88
:102A7000615E4043494341183020205E40430818BE
:102A800004F07AFA01F064FA01467F20C00504F0F0
:102A90003BF98B21C90505F079FD0B26F64331463C
:102AA00004F0B6FA684908600868684A904203D39F
:102AB00008681202504008605C4DA08DA882E08D2D
:102AC000E882208E68826248006840060CD5614822
:102AD000006806230090EB5E1222AA5E1621695E52
:102AE0001420285E02F076FE1420285E04F044FADA
:102AF000314604F08DFA474C803C20611620285E58
:102B000004F03AFA314604F083FA60611220285E3C
:102B100004F032FA314604F07BFAA0610FB0F0BD48
:102B20004D4849490A684D4B9A4201DD4C480AE03C
:102B30000A684C4B9A4201DD4B4804E009684B4A55
:102B4000914200DD324831490968090700D500206B
:102B50007047FFB587B0129F002F55D03448C06B27
:102B6000804705462B4E354C706E002807D0281A3A
:102B700004F002FA01463E4804F0C6F8A065254874
:102B800045662248006801070020002902DA6064D7
:102B9000A06402E034496164A0640A98E066109879
:102BA0002067119860670798A0670898E06719493F
:102BB000099880390860E06E4000000E07D1206F50
:102BC0004000000E03D1606F4000000E7ED0616FA8
:102BD000606F05F04BFC216F0646206F05F046FC48
:102BE000E16E0546E06E05F041FC294605F0CEFB9E
:102BF000314605F0CBFB01F0ABF905462946E06E06
:102C000005F034FCE06635E002E3000098020020A5
:102C10009A99193F30010020B40200209A99993EF8
:102C2000CCCCCC3ECC0400209AB969446405002089
:102C300024050020FF7F0000E80200203000002073
:102C40006666E63ECDCC0C3FB002002000008080DE
:102C500088020020DC020020CDCC4C3F9A99193E1E
:102C60008FC2753DCDCCCC3DCDCC4C3ECDCC4C3D7A
:102C7000002474492946206F05F0F8FB2067294697
:102C8000606F05F0F3FB6067616EE06D05F0EEFBD1
:102C9000A16E0546206E05F0E9FB294605F076FC9D
:102CA000012104F0B5F90690A16E606E05F0DEFB1F
:102CB000216E0546E06D05F0D9FB294605F066FB5F
:102CC000012104F0A5F90590A16E00E008E1A06ED5
:102CD00005F0CCFB0190616E606E05F0C7FB216EC4
:102CE0000646206E05F0C2FBE16D0546E06D05F07D
:102CF000BDFB294605F04AFC314605F047FC019929
:102D000005F044FB06460599606F05F0AFFB0546EC
:102D10003146206F05F0AAFB294605F037FC054631
:102D20003146E06E05F0A2FB06460699606F05F09D
:102D30009DFB314605F02AFC06460699206F05F0FA
:102D400095FB01900599E06E05F090FB019905F067
:102D50001DFC0490FE480168006805F087FB0190A7
:102D6000E16FE06F05F082FB0090A16FA06F05F0AE
:102D70007DFB009905F00AFB019905F007FB01F0C6
:102D8000E7F84000000E1DD0F1480168006805F02A
:102D90006DFB0190E16FE06F05F068FB0090A16FA3
:102DA000A06F05F063FB009905F0F0FA019905F0BA
:102DB000EDFA01F0CDF801467F20C00503F0A4FF35
:102DC000E4490860E3480068FFF7AAFE6064E2484F
:102DD000017BA02908D8017B602905D3C17AA029ED
:102DE00002D8C07A60280FD2DC498D4206DCDC486C
:102DF000854203D88E4201DC864205D90021C943B1
:102E0000606C04F005F960646800000E4FD070003B
:102E1000000E4CD004984000000E48D0CD48006809
:102E2000D049884243DAA16D7F20C00503F06CFFD2
:102E300001902946A06C05F019FB019905F016FBDD
:102E4000E16C05F0A3FAE064A16D7F20C00503F0FA
:102E50005BFF01903146A06C05F008FB019905F07D
:102E600005FB216D05F092FA2065A16D7F20C0055C
:102E700003F04AFF01900499A06C05F0F7FA01995C
:102E800005F0F4FA616D05F081FA6065E16CA06F00
:102E900005F07CFAA067216DE06F05F077FAE06736
:102EA000616DAB48006805F071FAA94908602946D0
:102EB000606C05F0DBFAA16F05F068FAA067314697
:102EC000606C05F0D3FAE16F05F060FAE0670499F1
:102ED000606C05F0CBFA9E4D296805F057FA286022
:102EE000A16D7F20C00503F00FFF0025ED432946AB
:102EF00004F08EF8A16F05F0B9FAA067A16D7F20EC
:102F0000C00503F001FF294604F082F8E16F05F0E7
:102F1000ADFAE067A16D7F20C00503F0F5FE2946FC
:102F200004F076F88A4D296805F0A0FA2860E06D73
:102F30000390266E606E02902968A06E05F096FAE6
:102F40000190E16F029805F091FA00900120C0070E
:102F50007040A16F05F08AFA009905F017FB0199FE
:102F600005F014FBE16D05F011FAE065E16FA06E6C
:102F700005F07CFA01902968029805F077FA009034
:102F8000A16F039805F072FA009905F0FFF9019915
:102F900005F0FCFA216E05F0F9F92066A16FA06E2C
:102FA00005F064FA01902968304605F05FFA009058
:102FB000E16F039805F05AFA009905F0E7FA0199D4
:102FC00005F0E4F9616E05F0E1F96066A16F029821
:102FD00005F04CFA0190E16F304605F047FA296898
:102FE0000646039805F042FA314605F0CFF90199FB
:102FF00005F0CCFAA16E05F0C9F9A066A16EA06E2D
:1030000005F034FA616E0646606E05F02FFA019005
:10301000216E206E05F02AFAE16D0546E06D05F09F
:1030200025FA294605F0B2F9019905F0AFF93146C4
:1030300005F0ACF900F08CFF05462946E06D05F07F
:1030400015FAE0652946206E05F010FA206629463B
:10305000606E05F00BFA60662946A06E05F006FA70
:10306000A0660121606E03F0D3FF616E05F0FEF9EA
:1030700005460121206E03F0CBFF216E05F0F6F925
:103080007F21C90505F076FA294605F07FFA03F09D
:103090000FFE05460E460121606E03F0B9FFA16EDA
:1030A00005F0E4F901900121E06D03F0B1FF216E1C
:1030B00005F0DCF9019905F069F903F0F9FD2A46FC
:1030C000334604F0AFFF03225207274B03F096FC70
:1030D00002F06AFF78600121206E03F099FFA16E73
:1030E00005F0C4F905460121E06D03F091FF616E22
:1030F00005F0BCF9294605F049FA03F0D9FD04F0C2
:1031000043FD03225207184B03F078FC02F04CFFFA
:10311000B8600121A06E03F07BFFA16E05F0A6F957
:1031200005460121606E03F073FF616E05F09EF9A4
:103130007F21C90505F01EFA294605F027FA03F09C
:10314000B7FD05460E460121206E03F061FF0DE03C
:10315000B0000020B4020020A40500200AD7233CC0
:103160000AD723BCA857CA3D66A64C40616E05F03D
:103170007DF901900121E06D03F04AFFA16E05F099
:1031800075F9019905F002F903F092FD2A463346DC
:1031900004F048FF03225207FE4B03F02FFC02F01D
:1031A00003FF3860FC487D68854202DAFB488542AF
:1031B00010D30120B968C005814203DBF84805F04F
:1031C000E5F9B860F748B968814203D3F64805F0DD
:1031D000DDF9B860284600F0F0FEF44D6864B86888
:1031E00000F0EBFEA864616EE06DA16E206EA16E32
:1031F000606E216EE06DA16EA06E616E606E216EDC
:10320000206EE16DE06D3A68B968786802F056FBAF
:103210000BB0F0BDF0B585B00646E548C06B804701
:10322000E24DA96E002901D0411AE966A8667068CE
:10323000A96B05F0ABF8DF4ADF4900F0A2FEDB4CDA
:1032400001270246803CE86EA16D636D03970093F1
:1032500001910290236D616BD848FFF7EEF9B068D9
:10326000E96B05F093F8D34AD34900F08AFE024691
:10327000E86E616E236E0397009301910290E36DF7
:10328000216BCE482030FFF7D8F9296C286A05F069
:103290007DF8CB4ACB4900F074FE0246E86E216F00
:1032A000E36E0397009301910290A36EE16AC34815
:1032B0004030FFF7C2F9C44FE069394605F0D6F84F
:1032C0000246E86EE16F0026A36F0290BB480396AA
:1032D000009301918169636F8030FFF7AEF9394641
:1032E000206A05F0C3F80246A968E86E6B68029090
:1032F000B248039600930191203081692B68803099
:10330000FFF79BF93946606A05F0B0F80246696933
:10331000E86E2B690290A948039600930191403012
:103320008169EB688030FFF788F9A8480068A84CED
:10333000800702D5A66105B0F0BDA069A54AA649DF
:1033400000F01FFEA061F6E7F8B5A4480546FEF7B9
:103350001FFFA34F3878401C3870387800240228AB
:1033600003D33C702846FFF755FF9E4908689F4EDF
:1033700002069D4803D5B4630322027001E0B26ADD
:10338000B26309689A4D090134D59A49097801292F
:1033900030D199490A88521C0A800B88FF22913249
:1033A000934224D89548B0630B885000642B04D214
:1033B000A861EC612C626C62F8BD0B88C82B04D24A
:1033C000AC61E8612C626C62F8BD0E88FF232D337E
:1033D0009E4204D2AC61EC6128626C62F8BD09883F
:1033E0009142FBD2AC61EC612C626862F8BD844A08
:1033F0000A80B4637C480078032801D081480480A7
:1034000077482221415EFF202D30814203DA744843
:10341000418C491C4184B16B7848814204DAAC612B
:10342000EC612C626C62F8BD77490020085E32289E
:1034300001DD3220088000228A5E3120C0438242B2
:1034400000DA0880614F3868400609D56F490020CE
:10345000085E03F091FDB16B04F098FFB06307E0E4
:103460000020085E03F088FDB16B05F083F8B063BF
:103470005B48408E03F088FDB16B04F0CDFF05D8AA
:103480005748408E03F080FDB06305E0B06B01212A
:10349000C905884200DAB4635148408E03F074FDD8
:1034A000B16B04F0B9FF04D84D48408E03F06CFDB9
:1034B000B063B16B5648814202DA3968090700D51A
:1034C000B063B16B4D48814200DCB06338680007DF
:1034D00001D5F06BB063386800041AD54048018B01
:1034E000491E0183018B00290DD0B26B49498A42E4
:1034F00000DCB163008B32280BD1386801218903CD
:103500000843386005E0048338680121C903884313
:1035100038602F4820388169B06B04F037FF2C4F9A
:10352000403FB96905F032F82949896904F02EFF56
:1035300003F09AFC0F2292010A2100F036FDA861E7
:10354000384620308169B06B05F020F8B96905F084
:103550001DF81F49896905F019F803F085FC0F2251
:1035600092010A2100F021FDE8613846203081698E
:10357000B06B05F00BF8B96904F008FF14498969CC
:1035800004F004FF03F070FC0F2292010A2100F006
:103590000CFD41E066A64C400000B4420000B4C2FD
:1035A0000000344300008080000034C3300100205C
:1035B0002405002000002544000025C4A4030020A9
:1035C0000000AA420000AAC23333654298020020DC
:1035D0006404002000001644000016C4B805002052
:1035E0003000002088020020A8020020B000002047
:1035F000640500209C0200209E0200200000C842BA
:10360000B90B0000A0020020BC020020E60200204E
:103610000000614400000744286238462030816978
:10362000B06B04F0B3FEB96904F0B0FE3946403126
:10363000896904F0ABFF03F017FC0F2292010A2105
:1036400000F0B3FC6862F7480078032800D0EAE68F
:10365000AC61EC612C626C62F8BD70B5F24908682F
:10366000020101208002002A1ADB0A68D20605D472
:103670000A6882430A60FDF709F870BD0A6892067D
:1036800005D50A6882430A60FDF700F870BD0A6834
:10369000520605D40A6882430A60FCF7F7FF70BD42
:1036A000E24A926BE24B9A4203DA0A6882430A606A
:1036B00002E00A6802430A60002000250F22DD4B69
:1036C00092018100C9188C69002C00DA8D618C6927
:1036D000944200DD8A61401C0428F2DB0020810056
:1036E000C9188A698A63401C0328F8DDFCF7D6FFF5
:1036F00070BDD1480178042911D0CB490A68022352
:10370000D206002A02DA0A68920603D5CB4A12785A
:10371000002A05D00A68520604D4012101707047BE
:10372000037070470A68120602D5062101707047BF
:103730000A68520202D40A68120202D505210170F9
:1037400070470968490101D503707047BC49096891
:10375000C90002D50721017070470321017070472D
:10376000F8B5B74E3068C0076FD0306840084000E9
:103770003060FCF78BFF0A2000F019FB0020FCF7FB
:103780000DFFAC4CA034A0800220FCF707FF2546BB
:10379000203DA8830520FCF701FFE8830820FCF703
:1037A000FDFE20800D20FCF7F9FE6080FCF776FF1F
:1037B000A2889E490D231B02A24880399A420BD24F
:1037C000A28805231B029A4206D9A2880368D21850
:1037D00002608A8F521C8A879449934F8039898F5F
:1037E0000A297DD397480A21006802F02CFB03F0D8
:1037F000CBFB8E4A803210630021D01FF9388187BD
:10380000904B1960126B904B9A420BDA027C521C5F
:10381000D2B202740A2A06D33A6801239B051A43DE
:103820003A6000E00174814A8032126B874B9A4201
:103830000CDA427D521CD2B24275052A07D3326897
:1038400001239B041A43326001E0CFE14175774ABE
:103850008032126B7E4B9A420ADAC27C521CD2B280
:10386000C274052A05D332681B031A43326000E094
:10387000C1746E4A8032126B764B9A420ADA027D2C
:10388000521CD2B20275052A05D3326880231A432E
:10389000326000E00175654A8032126B6E4B9A42CD
:1038A0000BDA427C521CD2B24274052A06D332682B
:1038B00001235B051A43326000E041745B4A8032A9
:1038C000126B664B9A420CDA827C521CD2B2827422
:1038D000052A07D332680123DB021A43326001E074
:1038E00055E08174326892020FD53968C90402D458
:1038F0003968890402D53221818401E0282181843C
:103900002D2181700F21C17041E03268130614220D
:10391000002B0EDA3968C90402D43968890401D54C
:10392000828401E00F218184192181700F21C170EF
:103930002DE03368002B0CDA3B68DB0402D43B68D3
:103940009B0401D5828401E00A2383848270C170C4
:103950001DE03268424B52030DD53A68D20402D4BE
:103960003A68920402D50522828400E083840A2208
:103970008270C1700BE03A683A4ED20402D43A68C1
:10398000920401D5838400E086848670C170264845
:103990000068400545D5254E803EB08B401C80B266
:1039A000B083042802D30520B08306E01F4900201D
:1039B0008031086748678867C8671E4FBB694B221C
:1039C000FF21D20028485F31934201DDB08609E033
:1039D000BA698A4203DD244A6432B28602E0C72211
:1039E000D243B286FB694B22D200934201DDF086BE
:1039F00009E0FA698A4203DD1B4A6432F28602E07A
:103A0000C722D243F2863B6A4B22D200934201DDA9
:103A100030872EE03A6A8A4228DD134A64323287C0
:103A200027E0E4E0A802002088020020B000002087
:103A30000000C84264050020950200209C0200207E
:103A400098020020B00100200000BE440000CD44D8
:103A50000000C8440080C5440000C3440080C04446
:103A6000F6FFFFFFECFFFFFF70FEFFFFC722D24310
:103A700032877B6A4B22D200934201DD708708E0D7
:103A8000786A884202DDB448708702E0C720C043EC
:103A90007087A88B03F078FAB04900903420085E54
:103AA00003F06AFAAE4E316B04F070FC009904F03A
:103AB000B3FC0BD2A98BE1200001814206D2B86988
:103AC000EB2803DD306F401C306709E0A98BFF2035
:103AD0009130814204D9306F022801D9801E3067AD
:103AE000E88B03F051FA9D4900903620085E03F000
:103AF00043FA316B04F04AFC009904F08DFC0BD2C0
:103B0000E98BE1200001814206D2F869EB2803DD50
:103B1000706F401C706709E0E98BFF209130814293
:103B200004D9706F022801D9801E7067208803F0C5
:103B30002BFA054689493820085E03F01DFA316BDF
:103B400004F024FC294604F067FC0BD22188E12014
:103B50000001814206D2386AEB2803DDB06F401CB9
:103B6000B06709E02188FF209130814204D9B06F0D
:103B7000022801D9801EB067608803F005FA054667
:103B800076493A20085E03F0F7F9316B04F0FEFB4A
:103B9000294604F041FC0BD26188E12000018142FA
:103BA00006D2786AEB2803DDF06F401CF06709E06D
:103BB0006188FF209130814204D9F06F022801D939
:103BC000801EF067306F0A2808D2706F0A2805D867
:103BD000B06F0A2802D8F06F0A2807D96148016837
:103BE000090203D40168802211430160F8BD5C49D9
:103BF0000020086748678867C867F8BD10B5FDF7FB
:103C000073FB10BDFEB5574C2068574EC005544D90
:103C1000002866DA2068FF2101318843206020688F
:103C2000C00606D451480078012845D13068C00646
:103C300042D54F480078032839D13068800336D404
:103C40004C490A7A4C483C2A806908D8CA7A702ABA
:103C500005D20A7B902A02D9497A902907D831687F
:103C6000C90604D40B2802D12168890119D4696AD4
:103C70004A1C6A62232907DC3168C90604D40B2870
:103C800002D12068800112D430681021884330604E
:103C9000206849050843206000206862FDF724FC85
:103CA00005E0686A022802DB686A801E68623148A3
:103CB0000830FDF7E8FD05E02068C00602D40020CA
:103CC000FDF7E1FD254FB87D401CC0B2B875022854
:103CD00004D3FDF7FDFC0020B87502E0E86A401C43
:103CE000E8622068800532D52448006B8047206850
:103CF0000121490288432060FEF71BFDFFF724FBEA
:103D00001C4916481431803082694369009301923E
:103D100002910369C26881684068FEF71AFF154F77
:103D2000403F786DFDF746FCA86A142808DD20683E
:103D3000400501D4FDF7ACFA786DE8611520A86262
:103D4000FFF78BFC3068000701D401F0ECF9FFF7B6
:103D500007FDFFF7CEFCFEBDD4FEFFFF30000020C4
:103D60003001002088020020980200209C020020E0
:103D7000A8020020A4050020E4040020240500205F
:103D8000FF2070470020C0437047FEE78E490022A5
:103D90000A607D22D200904200DD1046002800DA41
:103DA00000208A4A10600A689042FCDC7047401E7E
:103DB000FDD27047F0B593B09C4600260024AA2798
:103DC0006B4601AD1F715F71F2279F710027DF7194
:103DD0000090D87818729878587258789872187835
:103DE000D8720091D8781873987858735878987367
:103DF0001878D8730092D8781874987858745878CE
:103E000098741878D87460460090D87818759878A7
:103E10005875587898751878D87518980090D8788B
:103E2000187698785876587898761878D8761998B9
:103E30000090D878187798785877587898771878C5
:103E4000D8771A980090D87808AB18706B46987895
:103E500008AB58706B46587808AB98706B4618786A
:103E600008ABD8701B9800906B46D8782021685416
:103E7000212298782221A8545A7823206A5419784C
:103E8000242229541C980090D8782521A8549A7887
:103E900026206A545A7827212A541A7828206A54EE
:103EA0001D990091DA7829212A549A782A206A5497
:103EB0005A782B212A54187868541E9800902C2286
:103EC000D8782D21A8549A782E206A545A782F2118
:103ED0002A541A7830206A542C21D97101AA04E09E
:103EE000115D8919CEB2641CE4B28442F8D3411C3E
:103EF000C9B2165401A8FCF7A0FA13B0F0BD30B552
:103F00000023002801D0022901DC002030BD00225E
:103F10004C1E04E0855CEB18DBB2521CD2B2A2420C
:103F2000F8DB40182038C07FC018FF2801D00020DF
:103F300030BD012030BD002801DB401EFDD270479E
:103F4000002904DB0268511802688A42FCDB7047D2
:103F500010B504460021C943204603F059F8014634
:103F60001B4A6010141A204604F080FA214604F01F
:103F70007DFAFF21890504F0FDFA214604F076FA66
:103F800010BD70B506460D4614462946304604F06D
:103F900043FA01D8284670BD2146304604F0BEFAE7
:103FA00001D8204670BD304670BD884201DC08460D
:103FB00070479042FCDB104670470649884201D3A7
:103FC0000902484070470000D40200207C02002013
:103FD000865A375F0000808010B520215C4801F0D0
:103FE0002EFF5C480021816341630163C16210BD03
:103FF00070B5594908780024584D01281DD05848FB
:10400000007801282AD00878022842D008780328AE
:1040100050D00A78FF20F530052A4FD00A78072AB9
:104020005DD00978062907D12968491C29602968CB
:10403000642967D2FCF7ACF970BD2868401C286081
:104040002868202802D2FCF7A3F970BD2868402810
:1040500002D2FCF7A6F970BD2C6070BD2868401C28
:1040600028602868202805D268680A2802D8FCF74A
:104070008FF970BD2868402802D2FCF792F970BD14
:104080006868401C68606868142800D36C602C6005
:1040900070BD2868401C286028687D2802D8FCF77D
:1040A00077F970BD2868FA2802D8FCF77AF970BD54
:1040B0002C6070BDFCF76CF92C6070BD2968491C40
:1040C00029602968FA2902D2FCF762F970BD2968D3
:1040D000814202D2FCF765F970BD2C6070BD296881
:1040E000491C29602968814202D2FCF751F970BD50
:1040F0002868AF218900884202D2FCF752F970BDCE
:104100002C6070BD2968C82902D2FCF74AF970BD3D
:104110002968FF222D32914202D2FCF739F970BD95
:104120002968FF229132914202D2FCF73AF970BD20
:104130002968814202D2FCF72BF970BD28684B2117
:104140000901884202D2FCF72CF970BD2C6070BDC9
:1041500020060020E40500209502002080020020B7
:104160009C02002010B580221043FD4AFB4B1360D7
:10417000FC4C1314E36010725069C007FCD0080AAD
:1041800010725069C007FCD01172106AC003FCD5D0
:10419000A360C7200006106010BD30B5EF4AF0499B
:1041A00008320A60EF4B0A14DA6008724869800727
:1041B000FCD5087B00240C7248698007FCD50D7B78
:1041C0000C7248698007FCD5087B9A60C7221206EA
:1041D0000A602902081880B230BD70B580231843E8
:1041E000DF4BDE4C1C60DF4E1D14F56018720020A2
:1041F00006E05C69E407FCD00C5C1C72401CC0B299
:104200009042F6D3186AC003FCD5B560C7200006FB
:10421000186070BDF0B5D14BD14C08332360D14E3E
:104220002514F560207260698007FCD5207B08703A
:104230000020002707E0277263699B07FCD5237BDA
:104240000B54401CC0B29042F5D3B560C7200006A5
:104250002060F0BD70B50520C24C8003E061E6141B
:10426000A6612014A0608500E560012000F0DAF965
:10427000A560012000F0D6F9BB4882680F21090330
:104280008A438260826883141A438260C2688A43C8
:10429000C2600168B14301600168082211430160F6
:1042A000B24900200870B249087070BDF0B589B0FD
:1042B00006460F462422AF496846FBF74FFFAE493A
:1042C0004C20FFF74FFF00246D466000295A20461E
:1042D0005030C0B2FFF746FF641CE4B2122CF4D396
:1042E000A6490120FFF73EFFA5490220FFF73AFF4C
:1042F000A4490820FFF736FF332189020920FFF780
:1043000031FFA1491920FFF72DFFA0491A20FFF71F
:1043100029FF9F492020FFF725FF31462320FFF783
:1043200021FF9C492820FFF71DFF39462920FFF770
:1043300019FF99492A20FFF715FF98492C20FFF70C
:1043400011FF012109033C20FFF70CFF9449422093
:10435000FFF708FF93494120FFF704FF92494020EF
:10436000FFF700FF91491220FFF7FCFE01218903AE
:104370001320FFF7F7FE8E491420FFF7F3FE8D4957
:104380001520FFF7EFFE09B0F0BD70B505460C46ED
:1043900000F078F900212120FFF7E4FE8649232070
:1043A000FFF7E0FE85480068800104D5844923209A
:1043B000FFF7D8FE04E0834801882320FFF7D2FEF0
:1043C0000320C00221182220FFF7CCFEFF24013475
:1043D00021462120FFF7C6FE21462120FFF7C2FE1D
:1043E00021462120FFF7BEFE21462120FFF7BAFE1D
:1043F000E1013B20FFF7B6FE28782946401CC2B2F7
:104400003220FFF7EAFE81213620FFF7ABFE00F0F5
:1044100035F9574901200870002070BD10B50446D9
:1044200000F030F900212120FFF79CFE6249232093
:10443000FFF798FE61490968890104D56049232086
:10444000FFF790FE04E05F4801882320FFF78AFE13
:104450000320C00221182220FFF784FE80212120A2
:10446000FFF780FE00F00AF941490220087010BDF4
:10447000F0B504463E49022008703620FFF78DFE55
:10448000514D4D4E4E4F80042FD4012221463220F3
:10449000FFF7C0FE22780F2A11D000212120FFF75C
:1044A00061FE31462320FFF75DFE39462320FFF7EA
:1044B00059FE80212120FFF755FE2846F0BD611CE2
:1044C0003220FFF7A7FE00212120FFF74BFE3146E7
:1044D0002320FFF747FE39462320FFF743FE8021C4
:1044E0002120FFF73FFE0020F0BD00212120FFF733
:1044F00039FE31462320FFF735FE39462320FFF7EA
:1045000031FE80212120FFF72DFE2846F0BD70B539
:1045100000222E4C2E4D2F49012811D000285BD0AF
:1045200002280CD10A702078401C207005212078C8
:1045300001F089FC21702078285CFFF76FFF70BDC7
:104540000A702078401C20700521207801F07BFC47
:1045500021702078285CFFF761FF70BD010000C763
:104560000080004000040040000700409602002048
:10457000F402002084860000AA550000554D00007A
:10458000CC440000C87B000084080000310D00000E
:10459000A070000004840000744000008B910000B3
:1045A00018820000A3A70000DD9200004330000045
:1045B000326000000CFC00001B4300009802002049
:1045C0001B030000EA020020FFFFFFFFCE020020D5
:1045D000C9020020B802002008780428BDD30A7060
:1045E0002078401C20700521207801F02CFC2170DF
:1045F0002078285CFFF712FF70BD00B508491C2029
:10460000FFF7B0FD00212920FFF7ACFDFF210131AC
:104610002120FFF7A7FD81213620FFF7A3FD00BD74
:104620001B5000004B218901484380B20146401EC7
:1046300080B20029FAD1704710B5002302E010C9FA
:1046400010C05B1C9342FAD310BD5749A5200861E6
:10465000704700B5FFF7F9FF534841683F229202C7
:10466000914317229202891841605049C160416903
:10467000C907FCD141698907FCD500BD10B5FCF71D
:10468000EDFB10BD4A49002008614A49401E086000
:10469000704710B50A46FFF7F5FF2320012346496E
:1046A0008002FBF753FDFFF7E9FF10BD00B52321A2
:1046B000102289024048FFF7BFFF3F483F49028868
:1046C0000A8182884A810289CA8082894A80028A54
:1046D0008A80828A0A8082690B2A0BD1828B0A81A6
:1046E000028C4A81828CCA80028D4A80828D8A80A7
:1046F000028E0A80406B0C2804D1314801684022A8
:104700001143016000BD2D4908228A5E2A480260DB
:104710000A228A5E426006228A5E826002228A5EE5
:10472000C26004228A5E026100228A5E42610B221C
:10473000826108228A5EC2610A228A5E02620622C1
:104740008A5E426202228A5E826204228A5EC262BB
:1047500000228A5E02630C214163402199E71249DD
:104760000020086170471048A521016101680122FD
:10477000114301600168102211430160016889063C
:10478000FCD570470848A5210161016810229143BA
:10479000016001688906FCD401684908490001608C
:1047A000002101617047000000080040A15E000088
:1047B00000E000E080E100E0E40400206405002067
:1047C00088020020F8B50446ED480068C0040028BF
:1047D0002FDBEC490A7820468038002A03D009787C
:1047E00002290AD012E002F0C7FB012102F010FCFE
:1047F00002F03AFBE449088008E002F0BDFB012129
:1048000002F006FC02F030FBDF490880DE480021A0
:10481000415E002903DA01884942018009E0002154
:10482000415E002905DD0021415E1E2901DA1E21BD
:104830000180902C05D2D2480268012109048A43E4
:104840000260D24900260A2C02D9D148067006E03F
:104850000868000603D50868802290430860CD4FA1
:10486000387ACD4D3C280CD8F87A702809D2387B9C
:10487000902806D9787A702803D2C2480078032895
:104880001FD02E70C1480068400103D4BF480068A3
:10489000000205D5BA480168012252049143016023
:1048A000387A20281CD86878401CC0B268701E284E
:1048B00017D36E70B248016801225204914301601F
:1048C0000FE06E702878401CC0B228701E28D9D323
:1048D0002E70AB4B18680122520410431860D1E7C8
:1048E0006E70A749086880030DD52889401C80B2E6
:1048F0002881AF229200904206D308680122520418
:104900009043086000E02E819D480068800602D533
:104910000120009001E0002000909E484038806D0A
:10492000FFF74BFB01469D4881420EDC9949403917
:10493000C96D814201DD012000E0002002F024FB6E
:10494000FFF73BFB4000000E26D08D4801680907A9
:1049500022D4A979491CC9B2A97114291BD3AE71FB
:10496000884A03211170016801221203114301607A
:104970000168D20111430160016892129143016004
:104980000368D1010B430360036809128B43036082
:10499000016891430160F8BD7F4886710098002846
:1049A00016D00128F7D1774D287803281DD07748F5
:1049B0000168090206D4006840014CD570480068BF
:1049C000000348D470487821018002202870F8BD87
:1049D0000A2C06D36D4800680002F8D469480670B6
:1049E000F8BD684903200870F8BD6B4B1E71644820
:1049F000016801229207914301600168921491437A
:104A000001605C7101688903EED50068800312D5EE
:104A1000F87A803802F0B0FAFFF7CFFA604988429E
:104A2000E2DC387B803802F0A7FAFFF7C6FA0146CD
:104A30005B488142D8DCA02C2DD351480168C903C2
:104A400029D4524909680902CED42E700168012286
:104A500052049143016050494879221A13460F329B
:104A6000012094461F2A0BD38E70454F3A68D20519
:104A700006D528703A4612680702BA43404F3A609A
:104A80003F4A1768FF0514D5CE7088703E486421F0
:104A900001802E70F8BD3A480168C905FAD53A4937
:104AA00046220A802E700268012149048A4302606E
:104AB000F8BD1768BF0501D5C8708E701768BF05AF
:104AC00009D5314AC823138002222A7062461F2A60
:104AD000EED30871F8BD8F78012FFBD08E7067463A
:104AE0001F2F0FD30F2B03DD6E2C01D3C87002E0F4
:104AF0000F2B00DD4C714B790E27E31AFF43BB42AD
:104B000000DAC870C9780129E4D1BB2C05D310683C
:104B10008907884310602E7011E0432C06D311687A
:104B200001239B0799431160287008E0002C06D0F0
:104B300010680121890788431060022028700A2C20
:104B4000C8D81068000402D41068400408D5106862
:104B50000121C90388431060106849108843106020
:104B6000022028701168C001814311601068012182
:104B70004902884310601068490508431060F8BD79
:104B800098020020A8020020AA020020880200202B
:104B9000BB020020A4050020F60200200000A04275
:104BA0000000F04110B5001DC3B20122082177209A
:104BB000FBF774FE10BDF8B50646154600200090C0
:104BC000102917D006DC02290BD004290CD00829A3
:104BD0001BD10CE0202910D0402911D0802914D1FC
:104BE00011E02020009010E0402000900DE06020B7
:104BF00000900AE08020009007E0A020009004E0F0
:104C0000C020009001E0E02000900427102D2AD061
:104C100006DC022D0FD0042D15D0082D06D11AE088
:104C2000202D27D0402D2DD0802D33D00124E40419
:104C3000002E37D050E069460878012108430090E3
:104C40000324E404F4E7694608780221084300904D
:104C50000724E404ECE76946087803210843009040
:104C60000F24E404E4E71F2464036946087838430A
:104C70000090DDE73F246403694608780521084376
:104C80000090D5E77F24640369460878062108432D
:104C90000090CDE7FF2464036946087807210843A4
:104CA0000090C5E7FE48C068446268460378012268
:104CB00006217720FBF7F2FD082D0DD96B46012266
:104CC00009217720FBF702FD6846037801223B4368
:104CD00009217720FBF7E2FD012E1CD1F048C068C6
:104CE00084626846037880200343012207217720ED
:104CF000FBF7D4FD082D0ED96B4601220921772040
:104D0000FBF7E4FC684603780820034301220921ED
:104D10007720FBF7C3FDF8BDF8B56B4601221021E3
:104D20007720FBF7D3FC684604786B4601221121FB
:104D30007720FBF7CBFC6846017820010909D84DA4
:104D40000843E9680880D74C020500D52043088055
:104D50006B46012211217720FBF7B8FC68460678E4
:104D60006B46012212217720FBF7B0FC68460178E0
:104D70003007000D0843E9684880020500D520434C
:104D800048806B46012213217720FBF79FFC684681
:104D900006786B46012214217720FBF797FC6846C2
:104DA00004786B46012215217720FBF78FFC6846BB
:104DB000017830032201104309090843E96848607B
:104DC000B94F020300D5384348606B4601221521D4
:104DD0007720FBF77BFC684604786B46012216219E
:104DE0007720FBF773FC684606786B460122172193
:104DF0007720FBF76BFC68460178200432021043F1
:104E00000843E9688860020300D5384388606B4630
:104E1000012218217720FBF759FC684604786B467D
:104E2000012219217720FBF751FC68460078210206
:104E30000143E86881816B4601221A217720FBF744
:104E400045FC684604786B4601221B217720FBF75E
:104E50003DFC6846007821020143E868C1816B4649
:104E600001221C217720FBF731FC684604786B4651
:104E700001221D217720FBF729FC684600782102DA
:104E80000143E86801826B4601221E217720FBF76F
:104E90001DFC684604786B4601221F217720FBF732
:104EA00015FC6846007821020143E86841826B46A0
:104EB000012220217720FBF709FC684604786B4625
:104EC000012221217720FBF701FC684600782102AE
:104ED0000143E8688182F8BD10B571497348C86024
:104EE0000021C161016234210176FFF715FF08221C
:104EF00020210020FFF75FFE082220210120FFF77C
:104F00005AFE0320FFF74EFE10BD10B5022301220A
:104F100008217720FBF7C2FC10BD10B501231A460B
:104F200008217720FBF7BAFC10BD08B503226B46B9
:104F300011467720FBF7CAFB6A46107851789278C1
:104F400000040902084356491043C9680862020276
:104F500002D5FF22120610430862012008BD08B5E1
:104F60006B46032200217720FBF7B0FB6A461078DE
:104F70005178927800040902084349491043C968EE
:104F8000C861020202D5FF2212061043C861012047
:104F900008BD70B54248C668B06A01F0EDFF04462E
:104FA000306A01F0E9FF214601F0AEFE044602201E
:104FB000305E01F0E1FF214603F058FA01F078FE7F
:104FC000044600200D46305E01F0CBFC0022D243A7
:104FD00001F040FE22462B4601F09DF900F0E4FF6F
:104FE00070BDF8B52E48C468A06A01F0C5FF05463B
:104FF000206A01F0C1FF294601F086FE0546606A7D
:1050000001F0BAFF0646E06901F0B6FF314601F053
:105010007BFE06461420205E01F0AEFF314603F011
:1050200025FA07461020205E01F0A6FF394603F05E
:10503000ADF9314603F01AFA0746A06801F09CFF6B
:10504000394603F0A3F900901220205E01F094FF8E
:10505000314603F00BFA07460E20205E01F08CFF6C
:10506000394603F093F907463146284603F0FEF926
:10507000394603F0FBF907460C20205E01F07CFF67
:10508000294603F0F3F905463046009903F0EEF99E
:105090000646606801F070FF314603F077F907E0DB
:1050A0000003002000F000000000F0FF4C0600208C
:1050B000294603F06BF9394603F068F9F8BD10B5DD
:1050C00029480068294A1060294900200856294BC0
:1050D00000280FDB401C40B208700C2804D10020CF
:1050E000C043087010681860002008560C2801DAC8
:1050F0001068186018681268801A1F4A10601F48EC
:105100000078002804D113688868834200DA1060B0
:10511000106888601A480068400603D5116819486D
:1051200000F075FD10BD10B5114C6068072816D150
:10513000FFF7FBFE0028FBD0FFF711FF0028FBD094
:10514000FFF727FFFFF74DFF0F4903F08FF901F03D
:105150008BFE05490860FFF7B2FF002060606068C1
:10516000401C606010BD0000D8020020DC0200205E
:1051700000030020E0020020F0020020A80200202E
:1051800088020020680300200000204170B50D4611
:10519000FEF713FFFE4C20622846FEF70EFFA062CA
:1051A000A188FC4D002923D10146206A03F0EEF8C6
:1051B000F949884205DA0A226E21284600F0FEFBF2
:1051C00016E0F649884205DA2D226E21284600F0C5
:1051D000F5FB0DE0F249884205DA3C226E212846B3
:1051E00000F0ECFB04E064226E21284600F0E6FBB0
:1051F000A16A206A03F0CAF8EA49884202DD002069
:10520000A08070BDA088401C80B2A080FF212D31FD
:105210008842F6D97D20C000A0800A226421284659
:1052200000F0CCFB70BDF8B50746D94CE088401CB7
:1052300080B2E080DC4D2A6800269205002A09DB56
:10524000DA4A13681B0205D41268520102D42A6894
:1052500052005FD52A6852065CD5FF222D3290425B
:105260005AD37D200001E080002F05DB322903DACC
:105270003120C043814204DCFF31CD485F3181429F
:105280003ED3CC480090C07A803801F075FEFEF71E
:1052900094FE0146C848814232DC0098007B803889
:1052A00001F06AFEFEF789FE0146C348814227DC11
:1052B0002868000724D42868000421D42868400402
:1052C0001ED42078401CC0B22070012824D9BB49CC
:1052D0000320087028680121090308432860286812
:1052E000C901084328602868891288432860286813
:1052F000C9010843286028688903884328600BE0B7
:105300002078002808D0002F01DA267004E0401E23
:10531000207001E0E6802670384601F022FB49004B
:1053200049080022A64B02F0FFFF1FD8A5480068DD
:105330000A281BDA2868400618D52868800515D485
:105340009E490878032811D06078401CC0B2607074
:10535000C8280AD3032008702868012109030843DC
:1053600028602868C90108432860F8BD6670F8BD48
:10537000F8B592480178864C0026204658308A4D70
:1053800040680090032908D08C4F39788E48002956
:105390000BD0397802293AD04CE06681009801F0B0
:1053A000EBFD60616069E06244E00A21A170668102
:1053B0000022825E0099881801F0DEFD6061286895
:1053C0000121C90508432860FF202D30E0812868AD
:1053D000C0052FD50520E081009801F0CDFDE16AE0
:1053E00003F0D4F8794988420FDBA089401C00B251
:1053F000A0810A281EDB1420A081012038702868B3
:10540000FF2101318843286014E0A68112E00921C0
:10541000C943A17066810022825E0099881A01F05A
:10542000ABFD606128680121C90508432860FF20A1
:105430002D30E081664807785548816A006A02F09D
:10544000A5FF002F23D04121090688421FDD5B48BC
:10545000007801282AD14E4F0098583701F08CFD72
:10546000E16A03F093F80121C90588421EDB092097
:105470003968C043814219DA6681A6702868012123
:10548000890508432860FF202D30E0810EE0616A25
:1054900003F044F805D24E480078002801D064207B
:1054A0006082A16A206A02F071FF6062434800785E
:1054B000012846D1464F387800280DD0A16A206ACD
:1054C00002F064FF3549884206DD26822868012102
:1054D00009060843286034E03878002831D1208A52
:1054E000401C07B227822868C0011DD528485830C3
:1054F000406801F041FDE16A03F048F80121C90567
:10550000884211DB22485830006800280CDA668196
:10551000A6702868491008432860FF20C830C01BC7
:10552000E081FF202E3020821021615EFF202D308F
:10553000814206DB401C208228680121090688433D
:105540002860608A401C00B26082FA2808DAE0898C
:10555000401E60812968012080050143296001E027
:105560001C48608215480078012850D10A20205E2E
:10557000002801DB401C60810A200E21205E615E54
:1055800088424EDC00284CDB884241D1004823E0B1
:10559000100300206F12833B000040400000C04019
:1055A000000020410000A040980200208802002056
:1055B000BD020000A40500200000F041A802002068
:1055C00000001440F0000020AA0200200000344334
:1055D000E4020020E90300005830022140686156CF
:1055E000401801F0C9FC60612868400204D52868B1
:1055F000000201D4E06A60616069E062296801200C
:105600008005814329602968400081432960F8BDF5
:10561000D248022140686156401801F0ADFC60613B
:10562000F8BD0020C0436081F8BDF0B587B0CC4F15
:105630003868CA4C400425460026583D002820DA28
:1056400038680121890388433860EE64AE64AE6136
:10565000EE616E64AE63606801F08EFC696902F011
:105660005DFF0BD2BF480670606801F085FC696978
:1056700002F08CFF01F0F8FBBB490880002007B066
:10568000F0BDFFF775FE686901F0EEFBB3494968AC
:10569000441AAC64204601F06FFC0021C943069017
:1056A00001F0B6FC01F0E0FB28630590A86B201A1E
:1056B0004100401868630490AC48007800281FD16E
:1056C000AB480168AB4881421ADAAB4801683F2019
:1056D0000006814214DAA948296A814210DAA96ACF
:1056E00081420DDA2046FF30A5492C30884207D28E
:1056F000A449069802F0BAFEA96902F047FEA86123
:10570000A148A969814200DBA861A048A96981423A
:1057100000D3A861AC63A86901F0A6FB0599411804
:105720000498081800B28D490968401AE86403908B
:105730008100E9630291696C401A0621484328649C
:10574000019088480078032824D089480168894856
:1057500081421FDA884801683F200006814219DA39
:105760008B48296A814215DAA96A814212DAFF342C
:1057700083482C3484420DD27C480078002809D11B
:10578000039801F0F9FB834902F070FEE96902F029
:10579000FDFDE8618048E969814200DBE8617F48FE
:1057A000E969814200D3E86103986864386880053C
:1057B00001D5AE61EE616B480078032801D1AE617E
:1057C000EE61E86901F050FB029941180198081850
:1057D00000B254E7F8B5002B6FD0614B1B681B0774
:1057E0006BD4F5239B005843C3171B0D18180013E7
:1057F00005B25A4808380580F5239B005943CB175A
:105800001B0D591809130EB24680F52189004A4331
:10581000D117090D8918091309B28180084601F0D2
:10582000ABFB5F4CE16A02F021FE0746284601F01F
:10583000A3FBA16A02F01AFE0546704201F09CFB30
:10584000616A02F013FE294602F0A0FE394602F01A
:105850009DFD544902F09AFE01F006FB3F4C00B258
:10586000583C20813F490A780021032A09D1C828E1
:1058700000DD21810820205EC722D243904200DA59
:1058800021814948226A824202DCA26A824200DD0A
:1058900021810821615E314800F0AEF92F4D0821C9
:1058A0002888615E00B2FFF7BEFC28883F4980006F
:1058B0000880FFF7BAFE3E490880F8BDF7B582B010
:1058C000029801F0F5F93B4A3B4B01F097F80E4680
:1058D000044602F0B3FC00F067FB05462046314663
:1058E00002F05CFC00F060FB0446039801F0E0F974
:1058F000304A314B01F082F80F46064602F09EFC1A
:1059000000F052FB00903046394602F047FC00F0B0
:105910004BFB0746049801F0CBF9264A264B01F0D1
:105920006DF80646019102F089FC3046019902F0BB
:1059300035FC03990298FFF729FC0120C007184E97
:10594000454075622146009802F090FDB062214604
:10595000384602F08BFDF06205B0F0BD6803002010
:1059600098020020A8020020AA020020E4020020E1
:10597000B00200209A99993EB40200200000A04095
:105980005702000052499D390000C8420000C8C2B9
:10599000000070416F12033B0000FA430000FAC39D
:1059A00078060020000075440000A042BC020020E0
:1059B000E60200205F40D42247DF913FF7B586B072
:1059C0000C461746ED49069802F050FD054601F0D9
:1059D0004BFA00B2EA49088008460088404300B20A
:1059E000E84908800020085E00F0BBFF03910290A8
:1059F000204600F0B6FF05460022E34B00F0FEFF14
:105A000001910090039B029A00F0F8FF0591049029
:105A100000F00AFFDD4A03C2384600F0A2FF054647
:105A2000DB4ADC4B00F0EAFF0591049000F0BCFA81
:105A3000D9490860D2480088400000B2D7490880A0
:105A400009B0F0BD7FB504460D461646284600F065
:105A500088FF01225207D24B0191009000F0CEFF47
:105A60000391029000F0E0FECE4A03C2304600F0FF
:105A700078FF0022CC4B0191009000F0BFFF039112
:105A8000029000F0D1FEC94A03C2C84903C900F020
:105A9000A7FFC74AC74B0191009000F0AFFF0391E9
:105AA000029000F08BFE2060BE4903C900F098FF11
:105AB000C14AC24B0191009000F0A0FF03910290F7
:105AC00000F07CFE60607FBDF0B585B0AF4860C877
:105AD000AB480024045FE7172846314622463B4680
